{
  "_format": "hh-sol-artifact-1",
  "contractName": "PariMutuelBetting",
  "sourceName": "contracts/PariMutuelBetting.sol",
  "abi": [
    {
      "inputs": [],
      "stateMutability": "nonpayable",
      "type": "constructor"
    },
    {
      "anonymous": false,
      "inputs": [
        {
          "indexed": true,
          "internalType": "address",
          "name": "user",
          "type": "address"
        },
        {
          "indexed": false,
          "internalType": "uint256",
          "name": "amount",
          "type": "uint256"
        }
      ],
      "name": "FundsDeposited",
      "type": "event"
    },
    {
      "anonymous": false,
      "inputs": [
        {
          "indexed": false,
          "internalType": "uint8",
          "name": "winningOutcome",
          "type": "uint8"
        }
      ],
      "name": "PayoutFinalized",
      "type": "event"
    },
    {
      "anonymous": false,
      "inputs": [
        {
          "indexed": true,
          "internalType": "address",
          "name": "user",
          "type": "address"
        },
        {
          "indexed": false,
          "internalType": "uint256",
          "name": "amount",
          "type": "uint256"
        }
      ],
      "name": "Withdrawn",
      "type": "event"
    },
    {
      "inputs": [
        {
          "internalType": "address",
          "name": "",
          "type": "address"
        }
      ],
      "name": "balances",
      "outputs": [
        {
          "internalType": "uint256",
          "name": "",
          "type": "uint256"
        }
      ],
      "stateMutability": "view",
      "type": "function"
    },
    {
      "inputs": [],
      "name": "depositFunds",
      "outputs": [],
      "stateMutability": "payable",
      "type": "function"
    },
    {
      "inputs": [
        {
          "internalType": "uint8",
          "name": "_outcome",
          "type": "uint8"
        },
        {
          "internalType": "address[]",
          "name": "_winners",
          "type": "address[]"
        },
        {
          "internalType": "uint256[]",
          "name": "_amounts",
          "type": "uint256[]"
        }
      ],
      "name": "finalizePayout",
      "outputs": [],
      "stateMutability": "nonpayable",
      "type": "function"
    },
    {
      "inputs": [],
      "name": "owner",
      "outputs": [
        {
          "internalType": "address",
          "name": "",
          "type": "address"
        }
      ],
      "stateMutability": "view",
      "type": "function"
    },
    {
      "inputs": [],
      "name": "payoutFinalized",
      "outputs": [
        {
          "internalType": "bool",
          "name": "",
          "type": "bool"
        }
      ],
      "stateMutability": "view",
      "type": "function"
    },
    {
      "inputs": [],
      "name": "totalPool",
      "outputs": [
        {
          "internalType": "uint256",
          "name": "",
          "type": "uint256"
        }
      ],
      "stateMutability": "view",
      "type": "function"
    }
  ],
  "bytecode": "0x6080604052348015600f57600080fd5b50336000806101000a81548173ffffffffffffffffffffffffffffffffffffffff021916908373ffffffffffffffffffffffffffffffffffffffff160217905550610bcf8061005f6000396000f3fe6080604052600436106100555760003560e01c806327e235e31461005a5780635fed17741461009757806379762eff146100c25780638da5cb5b146100eb578063e2c41dbc14610116578063ecfb49a314610120575b600080fd5b34801561006657600080fd5b50610081600480360381019061007c9190610620565b61014b565b60405161008e9190610666565b60405180910390f35b3480156100a357600080fd5b506100ac610163565b6040516100b9919061069c565b60405180910390f35b3480156100ce57600080fd5b506100e960048036038101906100e491906107ab565b610176565b005b3480156100f757600080fd5b5061010061048c565b60405161010d919061084f565b60405180910390f35b61011e6104b0565b005b34801561012c57600080fd5b506101356105b2565b6040516101429190610666565b60405180910390f35b60036020528060005260406000206000915090505481565b600260009054906101000a900460ff1681565b60008054906101000a900473ffffffffffffffffffffffffffffffffffffffff1673ffffffffffffffffffffffffffffffffffffffff163373ffffffffffffffffffffffffffffffffffffffff1614610204576040517f08c379a00000000000000000000000000000000000000000000000000000000081526004016101fb906108c7565b60405180910390fd5b600260009054906101000a900460ff1615610254576040517f08c379a000000000000000000000000000000000000000000000000000000000815260040161024b90610933565b60405180910390fd5b81819050848490501461029c576040517f08c379a00000000000000000000000000000000000000000000000000000000081526004016102939061099f565b60405180910390fd5b6001600260006101000a81548160ff0219169083151502179055507f93dbde7f26aeb4a169ebca13213a9f8fec20bffa6b74f96cbf821792588a7548856040516102e691906109ce565b60405180910390a160005b84849050811015610484576000858583818110610311576103106109e9565b5b90506020020160208101906103269190610620565b73ffffffffffffffffffffffffffffffffffffffff1684848481811061034f5761034e6109e9565b5b9050602002013560405161036290610a49565b60006040518083038185875af1925050503d806000811461039f576040519150601f19603f3d011682016040523d82523d6000602084013e6103a4565b606091505b50509050806103e8576040517f08c379a00000000000000000000000000000000000000000000000000000000081526004016103df90610aaa565b60405180910390fd5b8585838181106103fb576103fa6109e9565b5b90506020020160208101906104109190610620565b73ffffffffffffffffffffffffffffffffffffffff167f7084f5476618d8e60b11ef0d7d3f06914655adb8793e28ff7f018d4c76d505d585858581811061045a576104596109e9565b5b9050602002013560405161046e9190610666565b60405180910390a25080806001019150506102f1565b505050505050565b60008054906101000a900473ffffffffffffffffffffffffffffffffffffffff1681565b600034116104f3576040517f08c379a00000000000000000000000000000000000000000000000000000000081526004016104ea90610b16565b60405180910390fd5b34600360003373ffffffffffffffffffffffffffffffffffffffff1673ffffffffffffffffffffffffffffffffffffffff16815260200190815260200160002060008282546105429190610b65565b92505081905550346001600082825461055b9190610b65565b925050819055503373ffffffffffffffffffffffffffffffffffffffff167f543ba50a5eec5e6178218e364b1d0f396157b3c8fa278522c2cb7fd99407d474346040516105a89190610666565b60405180910390a2565b60015481565b600080fd5b600080fd5b600073ffffffffffffffffffffffffffffffffffffffff82169050919050565b60006105ed826105c2565b9050919050565b6105fd816105e2565b811461060857600080fd5b50565b60008135905061061a816105f4565b92915050565b600060208284031215610636576106356105b8565b5b60006106448482850161060b565b91505092915050565b6000819050919050565b6106608161064d565b82525050565b600060208201905061067b6000830184610657565b92915050565b60008115159050919050565b61069681610681565b82525050565b60006020820190506106b1600083018461068d565b92915050565b600060ff82169050919050565b6106cd816106b7565b81146106d857600080fd5b50565b6000813590506106ea816106c4565b92915050565b600080fd5b600080fd5b600080fd5b60008083601f840112610715576107146106f0565b5b8235905067ffffffffffffffff811115610732576107316106f5565b5b60208301915083602082028301111561074e5761074d6106fa565b5b9250929050565b60008083601f84011261076b5761076a6106f0565b5b8235905067ffffffffffffffff811115610788576107876106f5565b5b6020830191508360208202830111156107a4576107a36106fa565b5b9250929050565b6000806000806000606086880312156107c7576107c66105b8565b5b60006107d5888289016106db565b955050602086013567ffffffffffffffff8111156107f6576107f56105bd565b5b610802888289016106ff565b9450945050604086013567ffffffffffffffff811115610825576108246105bd565b5b61083188828901610755565b92509250509295509295909350565b610849816105e2565b82525050565b60006020820190506108646000830184610840565b92915050565b600082825260208201905092915050565b7f4e6f7420636f6e7472616374206f776e65720000000000000000000000000000600082015250565b60006108b160128361086a565b91506108bc8261087b565b602082019050919050565b600060208201905081810360008301526108e0816108a4565b9050919050565b7f5061796f757420616c72656164792066696e616c697a65640000000000000000600082015250565b600061091d60188361086a565b9150610928826108e7565b602082019050919050565b6000602082019050818103600083015261094c81610910565b9050919050565b7f4d69736d6174636865642077696e6e65727320616e6420616d6f756e74730000600082015250565b6000610989601e8361086a565b915061099482610953565b602082019050919050565b600060208201905081810360008301526109b88161097c565b9050919050565b6109c8816106b7565b82525050565b60006020820190506109e360008301846109bf565b92915050565b7f4e487b7100000000000000000000000000000000000000000000000000000000600052603260045260246000fd5b600081905092915050565b50565b6000610a33600083610a18565b9150610a3e82610a23565b600082019050919050565b6000610a5482610a26565b9150819050919050565b7f4661696c656420746f2073656e64207061796f75740000000000000000000000600082015250565b6000610a9460158361086a565b9150610a9f82610a5e565b602082019050919050565b60006020820190508181036000830152610ac381610a87565b9050919050565b7f4d7573742073656e642045544800000000000000000000000000000000000000600082015250565b6000610b00600d8361086a565b9150610b0b82610aca565b602082019050919050565b60006020820190508181036000830152610b2f81610af3565b9050919050565b7f4e487b7100000000000000000000000000000000000000000000000000000000600052601160045260246000fd5b6000610b708261064d565b9150610b7b8361064d565b9250828201905080821115610b9357610b92610b36565b5b9291505056fea264697066735822122062c689a6f9c82951e30f2a0e0dd456e4c2efcf7228604ac2cf677004c97bb50e64736f6c634300081a0033",
  "linkReferences": {},
  "deployedLinkReferences": {}
}